:020000021000EC
:10C000000000012049F9010071F9010073F90100F4
:10C0100075F9010077F9010079F9010000000000CD
:10C020000000000000000000000000007BF901009B
:10C030007DF90100000000007FF9010081F9010095
:10C0400083F9010083F901003102020083F9010044
:10C0500089D1010083F9010083F9010083F901000E
:10C0600083F9010083F9010083F9010083F90100DC
:10C0700083F9010083F9010083F9010083F90100CC
:10C0800083F9010001FA010083F9010083F901003D
:10C0900083F9010083F9010083F9010083F90100AC
:10C0A00083F9010083F9010083F9010083F901009C
:10C0B00083F9010083F90100000000000000000086
:10C0C00083F9010083F9010083F9010083F901007C
:10C0D00083F9010083F9010083F9010000000000E9
:10C0E0000000000000000000000000000000000050
:10C0F0000000000000000000000000000000000040
:10C10000000000000000000000000000000000002F
:10C11000000000000000000000000000000000001F
:10C40000044B05481B1A062B02D9044B03B11847ED
:10C41000704700BF172100201421002000000000F9
:10C4200005490648091A891001EBD171491002D05B
:10C43000034B03B11847704714210020142100203A
:10C440000000000010B5064C237843B9FFF7D8FF71
:10C45000044B13B10448AFF300800123237010BDD7
:10C4600018210020000000008C1C020008B5084BB9
:10C470001BB108490848AFF300800848036813B9A6
:10C48000BDE80840CCE7064B002BF9D09847F7E70A
:10C49000000000001C2100208C1C02001021002044
:10C4A00000000000154B002B08BF134B9D46A3F561
:10C4B000803A00218B460F461348144A121A04F0A2
:10C4C00083FD0F4B002B00D098470E4B002B00D064
:10C4D00098470020002104000D000D48002802D0DC
:10C4E0000C48AFF3008004F005FD2000290003F0A4
:10C4F000B5FF04F0EBFC00BF0000080000000120C5
:10C50000000000000000000018210020CC240020C2
:10C510000000000000000000F0B50B680C4687B07A
:10C520000846DB689847236806461B6920469847FB
:10C5300025490746684603F0D3FE3546AB1BDBB200
:10C540009F424FF010020CD915F8011B03A803F00D
:10C5500021FF03A9684603F045FF03A803F07EFE10
:10C56000ECE70021009804F09DFE184B1A78054670
:10C570001E461AB11649174803F0ADFB29460A2298
:10C580005A3D144803F026FC082D9CBF124B1D6039
:10C5900023682046DB689847236805461B692046C8
:10C5A00098470146284601F0F3FA33781BB14FF45F
:10C5B0007A7003F017FA642003F014FA684603F067
:10C5C0004DFE07B0F0BD00BF151602008820002008
:10C5D0000C1502005424002048230020094B1B782E
:10C5E00010B5044663B10849084803F06BFB2046C8
:10C5F00000F02CFEBDE810400146044803F084BB67
:10C6000010BD00BF882000201A150200542400200D
:10C61000094B1B7810B5044663B10849084803F07C
:10C6200051FB204600F012FEBDE8104001460448D0
:10C6300003F06ABB10BD00BF882000203515020042
:10C640005424002010B5034B0360044600F042FE62
:10C65000204610BD4417020010B50446FFF7F2FF54
:10C66000204603F00FFF204610BD000010B5034B1D
:10C6700003600446FFF7E6FF204610BDE414020005
:10C6800010B50446FFF7F2FF204603F0FBFE2046FC
:10C6900010BD0000244B1A68012393FBF2F24FF403
:10C6A0007A73534307EE903A204BF8EEE77A70B571
:10C6B0001F4DC3ED007A1F4C1F4EFF231A4619462B
:10C6C000284601F039F922461C4928461C4D04F041
:10C6D000E3FB1C491C4801F0F9F902221B492846DA
:10C6E00001F0FCF928461A4D2246314604F0D4FBED
:10C6F00008221849284601F0F1F92846164D22462D
:10C70000314604F0C9FB0C2312221449284600F0DC
:10C710000BFE22461249284604F0BEFB1E2111489A
:10C72000BDE8704002F0CEBB8420002048210020EC
:10C73000A0210020802000206DC60100ADD801009E
:10C740004C2100209F15020058230020A415020050
:10C7500018230020A915020070210020AE15020048
:10C76000D5D201003821002070B5104C06460D4688
:10C7700020463C2100F055FC012003F033F9F1B2D2
:10C78000204600F06BFB012003F02CF9E9B22046B3
:10C7900000F064FB012003F025F9204600F09CFC2A
:10C7A0000120BDE8704003F01DB900BF80230020C8
:10C7B00008B541211820FFF7D7FF012003F012F937
:10C7C00002211B20FFF7D0FF012003F00BF9D82135
:10C7D0001A20FFF7C9FF012003F004F901212220EC
:10C7E000FFF7C2FF012003F0FDF81820C121FFF779
:10C7F000BBFF0120BDE8084003F0F4B838B53C2188
:10C800000546144800F00DFC012003F0EBF8E9B2F6
:10C81000104800F023FB012003F0E4F80D4800F07D
:10C820005BFC012003F0DEF801223D21094800F005
:10C83000F5FB012003F0D6F8064800F00CFB0028B9
:10C8400006DD044800F01CFB0446012003F0CAF892
:10C85000204638BD8023002038B54500E81DFFF78D
:10C86000CDFF0446A81DFFF7C9FF40EA042000B22F
:10C8700003F07AFF0022044B03F0DCFF04F0BCFA63
:10C8800000EE100A38BD00BF0000103F000000009D
:10C890002DE9F04FC44BC54C2DED028BD4ED007A41
:10C8A00093ED008A93B037EE888A03F06BF807EEB9
:10C8B000900AF8EE677AB4EEE78AF1EE10FA40F1EA
:10C8C000BC8103F05FF8BA4D07EE900A2B78F8EEC2
:10C8D000677AC4ED007ABBB1B649B74803F0FBF9FB
:10C8E00094ED007ADFEDB57AC7EE276A16EE900A6E
:10C8F00003F04CFF41EC100B0221AF4803F012FB98
:10C90000AF49AD4803F000FAAE4CAF48AF4EB04F60
:10C9100000F068FE2146AF4802F0BCFBAE4B187039
:10C9200000285CD1206803F031FFD4ED027A94ED49
:10C93000017A67EEA77A8046E7EE077A894617EE16
:10C94000900A03F023FF41EC100B02F0E1FBB0EE84
:10C95000401AF0EE601A49EC108B02F0D7FB90A35E
:10C96000D3E9002351EC100B03F064FFC6E900018A
:10C97000A06880F0004003F009FFCDE90001606885
:10C9800080F0004003F002FF9DED001B41EC100B16
:10C9900002F0BCFB82A3D3E9002351EC100B03F09F
:10C9A00049FF2B78C7E900011BB18C49824803F08D
:10C9B00092F92B782BB1022196ED000B7E4803F003
:10C9C000B1FA2B781BB186497B4803F084F92B78A8
:10C9D0002BB1022197ED000B774803F0A6FA052052
:10C9E00003F000F80020FFF737FF2B78002B32D040
:10C9F0007C49714803F06FF9206803F0C7FE41ECF1
:10CA0000100B02216C4803F08DFA77496A4803F055
:10CA10007BF97649684803F05EF9606803F0B6FE7A
:10CA200041EC100B0221644803F07CFA6E49624825
:10CA300003F06AF96E49604803F04DF9A06803F00D
:10CA4000A5FE41EC100B02215B4803F06BFA66492E
:10CA5000594803F059F9D7E90089D6E9006702F08F
:10CA6000A9FF64490B68C01A634B1A6890428A4652
:10CA70009B46C0F0E2804046494604F075F93946CD
:10CA800000F1B408304604F06FF90A2200F1B40650
:10CA9000414603A803F06CFC0A22314606A803F0C5
:10CAA00067FC564909A803F01BFC2B787BB154495D
:10CAB000414803F010F906A93F4803F007F951492E
:10CAC0003D4803F008F903A93B4803F013F90CA80B
:10CAD0003D4900F0AFFD0CA800F0A8FB002800F0D5
:10CAE0009C8094ED007ADFED486A8DF83C80F7EE8B
:10CAF000007A37EE277A052127EE267A09A8BCEEC0
:10CB0000C77A8DF83D6017EE103A94ED017A8DF8F2
:10CB10003E3037EE277A27EE267ABCEEC77A17EE3C
:10CB2000103A94ED027A8DF83F3077EE277A67EE6F
:10CB3000A67AFCEEE77A17EE903A8DF8403003F0D3
:10CB400065FC062103788DF8413009A803F05EFCEE
:10CB5000072103788DF8423009A803F057FC08211B
:10CB600003788DF8433009A803F050FC09210378BD
:10CB70008DF8443009A803F049FC0A2103788DF8A8
:10CB8000453009A803F042FC0B2103788DF84630AC
:10CB900009A803F03BFC0C2238E000BFAFF3008093
:10CBA00046DF617EDCA54C40482100204C2300205C
:10CBB00088200020B31502005424002000007A448D
:10CBC000BA15020094210020A0210020402100205D
:10CBD000402300203821002050230020BD150200F2
:10CBE000C5150200CE150200D7150200D9150200A6
:10CBF000E21502005423002034210020EB1502002E
:10CC0000F9150200D51502000000C84203780D484E
:10CC10008DF847300FA900F072FBDAF80020DBF83E
:10CC2000003009A81344CAF8003003F017FB06A827
:10CC300003F014FB03A803F011FB13B0BDEC028B4F
:10CC4000BDE8F08F7021002037B5534C53484FF4A6
:10CC5000E13103F0B6F923781BB151494F4803F095
:10CC60003AF8322002F0BEFE0121192002F0DEFE69
:10CC70000021192002F0FCFE0221052002F0D6FE60
:10CC80000221032002F0D2FE0121042002F0CEFE98
:10CC90000121072002F0CAFE0121062002F0C6FE93
:10CCA0000021042002F0E4FE0121072002F0E0FE52
:10CCB0000121062002F0DCFE3A4800F013F9322090
:10CCC00002F090FE384802F055F9FFF771FD237825
:10CCD0001BB13649314803F017F83549354800F0A3
:10CCE0008CFC3349334800F018FE334800F067FAF3
:10CCF0000146304800F07EFC4FF6FF712D4800F0F1
:10CD00000FFE2D492B4800F0CFFD2C49294800F09B
:10CD1000CBFD2B49274800F0C7FD2A49254800F0E4
:10CD2000C3FD294A2348002100F091FC274A2148ED
:10CD3000012100F08CFC264A2648002100F029FB46
:10CD4000234A2548002100F024FB02A9002501F810
:10CD5000015D01221F4800F0D2FA02A9012201F868
:10CD6000025D1D4800F0CBFA1C4B49F640421A60A8
:10CD700002F020FE1A4B18600E4800F08BFC23785E
:10CD80001BB11849054802F0BFFF4FF4FA7002F0DA
:10CD900029FE03B030BD00BF8820002054240020AD
:10CDA0000C160200802300203821002016160200F5
:10CDB00023160200A021002058230020502100202B
:10CDC0001C23002074210020DDC5010011C60100D4
:10CDD00019C501004C210020182300203421002017
:10CDE000542300202D1602000A4B4FF080421A6097
:10CDF000022100229A601971074B1B2018711F2015
:10CE000058711E20987105481A731860D9719A607C
:10CE1000704700BF602300206C23002000300040DA
:10CE20002DE9F84380460D46174601EB02090C46F2
:10CE30004C45A4EB050609D0D8F8003014F8011BC6
:10CE40001B68404698470028F2D100E03E46304635
:10CE5000BDE8F8837047203003F09AB838B5437FB7
:10CE60000D462BB100F16804204603F09FF808B18D
:10CE7000002038BD2046294603F06DF8012038BD5A
:10CE8000203003F077B8203003F088B82DE9F04166
:10CE90001E464FF47A7300258360104B45600446AC
:10CEA00040F8203B1746884603F04AF804F1680032
:10CEB00003F046F80A4B9DF81820C4F8108053F888
:10CEC000222062769DF81C20676153F82230A376F9
:10CED000267665772046BDE8F08100BF90160200F7
:10CEE000F0190200837E4FF0A04203F5E07330B5E5
:10CEF000012140F20C64C17642F82340437E03F5E1
:10CF0000E07342F8234003694FF0CC72C3F8242544
:10CF10000622C3F80025827EC3F80825427EC3F8A6
:10CF20000C25027E53B2D2B202F01F055C09A94063
:10CF300060340F4D002B45F8241006DA0D4B02F03B
:10CF40000F02134440221A7606E003F1604303F512
:10CF50006143402283F80023037E01215AB203F08B
:10CF60001F0301FA03F35209014941F8223030BD91
:10CF700000E100E0FCEC00E02DE9F84306468946BC
:10CF800098461546B2B100F12007384602F0EEFF90
:10CF900034690122C4F888952262C4F83475C4F853
:10CFA00038552260D4F84C313BB9D4F82431002BE9
:10CFB000F8D002E01046BDE8F8830023C4F84C31F5
:10CFC000D4F85C311BB9D4F82431002BF8D00023FD
:10CFD000C4F85C310122B8F1000F02D1D4F8243139
:10CFE00043B16261D4F80431002BFBD00023C4F8B4
:10CFF000043107E0E261D4F84831002BFBD0002374
:10D00000C4F84831D4F8243113B10023C4F82431D2
:10D01000D4F83C053066C0B2BDE8F8830123FFF7C1
:10D02000ABBF10B5044680F8B010683002F09EFF28
:10D030000123637710BDF8B50569002343770446E3
:10D0400090F8B030C5F88835012668302E62C5F8F2
:10D0500044050F4602F09CFF2369C5F848059E6011
:10D06000D3F850211AB9D3F82421002AF8D000228D
:10D07000C3F85021D3F860211AB9D3F82421002A2B
:10D08000F8D00022C3F86021012217B9D3F8241187
:10D0900041B15A61D3F80421002AFBD00022C3F821
:10D0A000042107E0DA61D3F84821002AFBD00022EE
:10D0B000C3F84821D3F8240168B10022C3F8242121
:10D0C000D3F8C404C3F8C404022804D0042814BF4D
:10D0D00004200320F8BDF8BD0121FFF7ACBF436970
:10D0E000D3F8642170B5044682B10022012500F115
:10D0F0002006C3F864210577304602F037FF6369E4
:10D100004022C3F83465C3F838251D636369D3F83A
:10D110006821D2B10025C3F8685104F168060123E3
:10D1200063772577304602F021FFD4F8B43003B19D
:10D130009847657765693046C5F8446502F028FF71
:10D140006369C5F8480501225A636369D3F804216D
:10D150005AB10022C3F80421227F32B1D3F83C0532
:10D16000D4F8B830206603B198476369D3F8242116
:10D1700042B10022C3F82421D3F8D024C3F8D0242C
:10D1800001225A6170BD00000148FFF7A8BF00BF2F
:10D190008023002007B5052303228DE80C004FF003
:10D1A0004022042311460348FFF770FE03B05DF8E8
:10D1B00004FB00BF8023002001608280704700686C
:10D1C00070478088704729DF704728DF7047036801
:10D1D0001868013018BF0120704708B54FF0805320
:10D1E0001A690368B3FBF2F31846FFF7EEFF112844
:10D1F000FAD008BD38B504460D461946FFF7EDFFD5
:10D200008B081A4629462068FFF7DDFF1128F8D061
:10D2100038BD10B502680846043A441AA34204D93E
:10D2200052F8044F40F8044BF7E710BD07B5002350
:10D230000622694604300093ADF8043003F0AAFEDC
:10D24000003018BF012003B05DF804FB10B5034C9B
:10D250000430214600F05AFC204610BD3C2400203A
:10D260000B6843608B880381704700234360038110
:10D27000704708B50160FFF7F8FF08BD807A704776
:10D28000C0687047007C704700207047C368585CD6
:10D29000704770B50D46114602680446D6691A46B5
:10D2A000B0470123A374A36923B121462846BDE8F2
:10D2B0007040184770BD70B5044608460D4603F02F
:10D2C0004FFF2368C2B229462046DB69BDE87040A3
:10D2D00018470000044B10B504460360C06808B14D
:10D2E00003F050FE204610BDB016020010B50446F3
:10D2F000FFF7F0FF204603F0C5F8204610BD10B53B
:10D30000837A9A42044628BF1A460274C06803F022
:10D3100050FE606928B1036821461B68BDE81040D3
:10D320001847012010BD000070B504461D46164682
:10D33000043042F6030200F08FF8142D4FF0000283
:10D3400028460A4B236028BF1420A072E260227492
:10D350006674A274E2746261A261E261226215B134
:10D3600003F008FEE060204670BD00BFB01602006A
:10D37000407C7047C07C70470346002ADA7414BFB3
:10D3800007220822084653F822200AB119461047FE
:10D3900070470B299CBF063140F82120704741613E
:10D3A000704770477047704700207047704770475C
:10D3B0000020704700207047002070470020704711
:10D3C0000020704700207047002070470020704701
:10D3D00000207047002070470020704700207047F1
:10D3E000704770477047704710B5044603F04AF81D
:10D3F000204610BD054A026064228280012100227D
:10D40000C28002818172C26002617047E016020030
:10D41000016170470120704710B5034B036004465B
:10D42000FFF758FF204610BD4417020010B5044610
:10D43000FFF7F2FF204603F025F8204610BD00005C
:10D4400038B504461D46FFF76FFF024B2574236075
:10D45000204638BD4417020010B50446FFF7ACFE65
:10D46000024A137801331370204610BD4E24002069
:10D47000014B1878704700BF4E240020C068036835
:10D480001B6A1847A0F10400FFF7F8BFC0680368E3
:10D490005B6A1847A0F10400FFF7F8BFC068036893
:10D4A0009B6A1847A0F10400FFF7F8BFC068036843
:10D4B000DB6A1847A0F10400FFF7F8BFC0680368F3
:10D4C0001B6B1847A0F10800FFF7F8BFC06803689E
:10D4D0005B6B1847A0F10800FFF7F8BFC06803684E
:10D4E0009B6B1847A0F10800FFF7F8BFC06810B4A5
:10D4F0000468E46BA4465DF8044B6047A0F10800A3
:10D50000FFF7F4BFC06803681B6C1847A0F1080060
:10D51000FFF7F8BFC06803685B6C1847A0F108000C
:10D52000FFF7F8BFC06803689B6C1847A0F10800BC
:10D53000FFF7F8BFC0680368DB6C1847A0F108006C
:10D54000FFF7F8BFD0F8703113B100F5AE7018478F
:10D550007047D0F8743113B100F5AE7018477047BA
:10D5600030B414461A4623685D6A9DF8083000F509
:10D57000AE71AC46204630BC60477047704770B50E
:10D58000054600F5AE7411462046FFF769FED5F852
:10D5900068311BB12046BDE87040184770BDD0F817
:10D5A0006C3110B500F5AE740BB12046984720469B
:10D5B000BDE81040FFF759BE10B4144600F5AE7137
:10D5C0001A4620465DF8044BFFF7D6BE10B4144649
:10D5D00000F5AE711A4620469DF804305DF8044B04
:10D5E00000F056BAC0680368DB681847C068036873
:10D5F0001B691847C0F888107047C0F8981070472A
:10D6000038B5D0F8A43004460D463BB900F01CFAFA
:10D6100000B2800003F0AEFCC4F8A40094F8A82087
:10D62000D4F8A43043F8225094F8A830013384F899
:10D63000A83038BD38B505460C460846FFF7D2FF7E
:10D6400004F5AE7107C985E80700284638BD0F29E3
:10D650009CBF5A3140F82120704710B50446FFF7AF
:10D6600007FF00B2800003F085FC04F1AC03036007
:10D6700004F1B803436004F1DC03836004F1FC03AC
:10D68000C36004F584730361052384F8A030C4F8F3
:10D690009C0010BD2DE9F043D0F88C10A5B00023FC
:10D6A00004468DF81C30E1B10DA800F097FA0DA8E2
:10D6B00000F0C6FA022805468CBF152314238DF806
:10D6C0004C000DA88DF84D3000F0B8FA2A460146FE
:10D6D000C5F114050DF14E0003F06BFCEDB201260F
:10D6E00001E016250E46D4F8881039B30DA800F0D5
:10D6F00075FA0DA800F0A4FA431CAB4280461DDA6F
:10D700001627774324AB3B4402288CBF0622022213
:10D7100003F8440C03F8432C0DA800F08FFA24AB57
:10D720001F4401464246A7F14200023D03F041FC7E
:10D730000136C8EB0505F6B205F0FF05D4F89010E8
:10D74000D1B194F89420BAB1022D15D9531C1620EA
:10D75000AB4200FB06F024AB0344A4BF023DEAB297
:10D76000FF2503F8442C03F8435C24AB18444238EB
:10D7700003F01FFC0136F6B2D4F89850BDB128462C
:10D7800003F0EEFCC0B214288ABF14238DF81C00ED
:10D790008DF81C309DF81C2090428CBF0820092079
:10D7A0008DF81D0029460DF11E0003F002FCD4F88F
:10D7B0009C3013B92046FFF750FF002742F60308BC
:10D7C00004F1040994F8A0309F4205DB002742F6DB
:10D7D000030804F108091BE0D4F89C3053F82750E3
:10D7E0002846FFF7EEFC404506D10DB1281F00E0AA
:10D7F00028464946FFF7D3FD0137E3E7D4F8A430C4
:10D8000053F827502846FFF7DCFC404505D0013788
:10D8100094F8A8309F42F1DB07E00DB1281F00E02B
:10D820002846494600F048F9F1E74BB104F59471F8
:10D830002046FFF7E5FE04F59A712046FFF7E0FE6B
:10D84000E06894F8A81002680491D4F8A410039139
:10D8500094F8A01002919DF81C30D4F89C1001910E
:10D8600007A90033009118BF01239568314613AA18
:10D87000A847E06803681B6D984725B0BDE8F083B2
:10D8800038B5D0F89C3004460D460BB9FFF7E5FEDD
:10D8900094F8A020D4F89C3043F8225094F8A0309B
:10D8A000013384F8A03038BDFFF7EABF154B10B53F
:10D8B00003F1680203600446803342608360FFF72F
:10D8C00095FED4F8A40008B103F05CFBD4F89C00EA
:10D8D00008B103F057FB04F5987000F0BBF804F5AD
:10D8E0008270FFF7F7FC04F1D800FFF7F3FC04F1B6
:10D8F000B400FFF7EFFC04F1100000F07FFE2046BB
:10D9000010BD00BF9817020010B50446FFF7CEFF08
:10D91000204602F0B7FD204610BDB430FFF7CBBC67
:10D9200007B502AB022223F8021DD8301946FFF7D3
:10D93000E6FC03B05DF804FB2DE9F843354BDFF856
:10D94000E890DFF8E88003F108020446026000F185
:10D95000100703F170028833002542608360384667
:10D9600001F08AFA04F1B406C4F88850C4F88C5067
:10D97000C4F8905084F89450C4F89850C4F89C505F
:10D9800084F8A050C4F8A45084F8A850224904F1A7
:10D99000AC0000F09BF81323022220493046FFF729
:10D9A000C3FC02231A461E4904F1D800FFF7BCFC51
:10D9B000494604F1FC0000F089F804232022414686
:10D9C00004F58270FFF7B0FC494604F5947000F04E
:10D9D00075F82022414604F5987000F043F821467E
:10D9E00004F5AE70FFF745FC10222946E76004F508
:10D9F000B47003F0E9FA0B493046FFF75CFC2946A6
:10DA00002046FFF78DFFE0682146FFF701FD204625
:10DA1000BDE8F883901702006C170200711702002E
:10DA200076170200851702007B170200801702009C
:10DA300010B50446FFF7C0FB024A13780133137098
:10DA4000204610BD4F240020014B1878704700BFBE
:10DA50004F240020704710B5044602F013FD204605
:10DA600010BD000038B504461546043042F60302E6
:10DA7000FFF7DEFF054B23600023A572E372A3626C
:10DA800084F822306362204638BD00BF401802008F
:10DA900070B50446C3720D460C3011461A4603F0A9
:10DAA00088FA012384F82230A36A23B1214628464C
:10DAB000BDE87040184770BD4162704710B54FF423
:10DAC00020520446FFF7B4FF204610BD10B54FF4B6
:10DAD00020520446FFF7C0FC204610BD13B50123B9
:10DAE0000446FFF7ADFC02A9064B2360002301F8B2
:10DAF000013D01222046FFF702FC034B2360204634
:10DB000002B010BD50180200E414020070B58AB0D3
:10DB100004460E4601A81B4902F0E2FB194904A87D
:10DB200002F0DEFB0634052514F8013D0F2B03D867
:10DB3000154901A802F05AFC1022217807A802F02A
:10DB400029FC07A904A802F0FAFB07A802F086FB4B
:10DB500004A901A802F046FC1DB10C4901A802F07D
:10DB600045FC15F1FF35DFD200231222314601A812
:10DB700002F05AFC04A802F071FB01A802F06EFB4F
:10DB80000AB070BD15160200A21502007818020036
:10DB9000F8B505460F460446631B9F4213DD237804
:10DBA00013F0F00F264603D109490A4802F093F812
:10DBB00031780848102202F0DFF80749054801349F
:10DBC00002F089F8E8E70348BDE8F84002F08AB8B7
:10DBD000A215020054240020D5150200F7B5044612
:10DBE00000232160037508460E468DF804308DF839
:10DBF00005308DF8063003F0B3FA451E002D1ADB10
:10DC0000277D0F2F17D8735D2D2B01D1013510E023
:10DC10007219002112F8012C8DF8042001A810229D
:10DC20008DF8053003F0C6FB27443871237D01339E
:10DC30002375023DE2E7204603B0F0BD0430704793
:10DC4000007D704771DF704772DF704773DF704788
:10DC500075DF704776DF704777DF704778DF704792
:10DC60007ADF70477CDF70477EDF70477FDF704769
:10DC700086DF704790DF704792DF704796DF70470E
:10DC800098DF704799DF7047A0DF7047A2DF7047C9
:10DC9000A3DF7047A4DF7047A6DF7047A9DF704796
:10DCA00060DF704761DF704762DF704763DF704796
:10DCB00053DF704710DF704711DF704790F85C004A
:10DCC000003018BF0120704770B590F86D600023D8
:10DCD000B34214DA1A01056FAC18AA588A420CD163
:10DCE000E38973B1227B02F0020202F0FF0342B12A
:10DCF00090F8740080F0010070BD0133E8E7002067
:10DD000070BD184670BD70B590F86D600023B342C9
:10DD10001ADA1A01056FAC18AA588A4212D1E189A1
:10DD2000A1B1227B02F0020202F0FF0382B10123C3
:10DD300080F874300022008FFFF7A0FFB0FA80F067
:10DD4000400970BD0133E2E7002070BD084670BD98
:10DD5000184670BD70B590F86D600023B3421CDAB0
:10DD60001A01056FAC18AA588A4214D1E389B3B1DD
:10DD7000227B130704D590F8740080F0010070BD79
:10DD800002F0040202F0FF034AB190F85C00003098
:10DD900018BF012070BD0133E0E7002070BD1846B8
:10DDA00070BDF0B590F86DE085B0002474452FDAB1
:10DDB0002501076F7E197D598D4227D1F4894CB317
:10DDC000357B15F00C0127D090F85C1021B315F0CD
:10DDD000080F14BF01250225ADF80A3001390123CF
:10DDE00080F85C108DF8045080F87430002501A98B
:10DDF000008F8DF80550ADF80640ADF8085003923D
:10DE0000FFF73EFFB0FA80F0400906E00134CDE7AD
:10DE1000002002E0204600E0084605B0F0BD70B5E5
:10DE200090F86D600023B34210DA1A01056FAC1848
:10DE3000AA588A4208D1E08948B1237B13F0300FF9
:10DE400014BF0120002070BD0133ECE7002070BD3D
:10DE50007FB590F86D600023B3422EDA1A01056F8A
:10DE6000AC18AA588A4226D1E28942B3217B11F02C
:10DE7000300326D0012311F0100F14BF19460221E0
:10DE80001A44ADF80210ADF80620002102228DF8E8
:10DE90000510ADF80810ADF80A2080F874306A4417
:10DEA00001A9008F8DF804300392FFF7E9FEB0FA64
:10DEB00080F0400906E00133CEE7002002E0104682
:10DEC00000E0184604B070BD03681B6C18477FB5AE
:10DED00090F86D600023B3422ADA1A01056FAC187E
:10DEE000AA588A4222D1E28922B3237B13F030035D
:10DEF0004FF0000120D001231A44ADF80620022281
:10DF0000ADF802108DF80510ADF80810ADF80A2034
:10DF100080F874306A4401A9008F8DF804300392B0
:10DF2000FFF7AEFEB0FA80F0400906E00133D2E719
:10DF3000002002E0104600E0184604B070BD11F168
:10DF4000270F08B514DB11F11D0F14DB11F1130FAE
:10DF500014DB11F10F0F14DB11F10B0F14DBCA1DD1
:10DF600015DBCB1C16DB0029D4BF0020042013E0F6
:10DF70006FF0270010E06FF01D000DE06FF0130050
:10DF80000AE06FF00F0007E06FF00B0004E06FF0A5
:10DF9000070001E06FF00300FFF75EFEB0FA80F0CB
:10DFA000400908BD1321008FFFF754BE07B5014695
:10DFB0006846FFF747FE086920B103680DF10102CA
:10DFC000DB69984703B05DF804FB000013B5044615
:10DFD00002A8002340F8043DFFF76AFE019802F012
:10DFE000C3FB084B002202F025FC02F005FF236969
:10DFF00033B11A6800EE100A126A2146184690479B
:10E0000002B010BD0000D03F704710B5044686B086
:10E0100000211822684602F0D7FFA37A002B14BF14
:10E02000002303238DF80030A38868460A221B01D1
:10E0300093FBF2F3ADF81030FFF708FE06B010BD09
:10E040002DE9F043054690F85D008FB00C460023A3
:10E05000142683425DDA06FB03F2296E8F188A5874
:10E06000A24207D12046FFF783F9C30751D57B6849
:10E0700013B94EE00133ECE795F833600DF1180861
:10E08000324605F11401404602F093FF2368204612
:10E090001B69984704300644F6B21F2E39D87868B9
:10E0A000FFF78DF801466846FFF798FD236895F85D
:10E0B00033701B69204698470EAB1F44033007F8A6
:10E0C000200C95F833703B441622684603F81F2C49
:10E0D000FFF7B4FD0237038828F80730236895F866
:10E0E0003370DB6820469847236881461B692046C9
:10E0F00098470437474402464946384602F059FFDC
:10E1000000231A4631464046FFF79EFD6C6301200E
:10E1100000E000200FB0BDE8F0832DE9F047D4B057
:10E120004FF48E7304460DF10A010DA8ADF80A30C4
:10E13000FFF7B8FD0346002840F04482BDF83420C4
:10E14000302A00F03C8111D8112A5CD004D8012A71
:10E1500021D0102A27D035E2142A00F0C780192ACE
:10E1600000F0D080132A40F02D829BE0382A00F086
:10E17000DA8106D8322A00F06481362A00F0BA81AA
:10E1800020E2502A00F0D180522A00F01281392A70
:10E1900040F01882ECE194F85C209DF83C30134488
:10E1A00084F85C300EE2BDF83800208705A9FFF73F
:10E1B0007BFD20699DF8143084F85C3028B1036839
:10E1C0000DF13D021B6821469847E288052A12D9C5
:10E1D0002389B3F5486F0ED8ADF816300023ADF89B
:10E1E000183005A94FF4C873208FADF81420ADF88E
:10E1F0001A30FFF72DFD94F86430002B00F0E28117
:10E200000022012109E14FF6FF72228784F85C00A9
:10E2100005464FF01409804694F85D309D4216DAA9
:10E22000276E09FB05F6BB19B85983F8108083F8EF
:10E230001180FFF79FF840B1206930B10368BA59E7
:10E24000D3F814A021460023D0470135E4E7206924
:10E2500018B1036821465B68984700230C201946D3
:10E2600094F86420934202DB0023184605E0A26E76
:10E2700000FB032201339160F2E794F86D20934292
:10E2800008DA216F1A01114401330873216F0A441F
:10E29000D081F2E7002384F87430236820469B691C
:10E2A00098478FE1E068002800F08681FEF78FFF35
:10E2B000002840F08181012303228DF80F3062F3A2
:10E2C00006138DF80C3007238DF80D301023002134
:10E2D0008DF80E30A36D05938DF8101009910A91F9
:10E2E0000B910691079105AB03AA68E1A16DBDF8FA
:10E2F0004420488A904218BF1946208F1A46FFF7DB
:10E30000B7FC5FE19DF83C20002A40F05B81E068AB
:10E3100020B11C2304F13C01FEF76CFF20690028AA
:10E3200000F0508103689B68E1E0BDF83A80064642
:10E330004FF0140994F85D309E4280F24381216EC3
:10E3400009FB06F3CF183A8942450CD12069002811
:10E3500000F0388103689DF8442000921D693A68F6
:10E360000DF1460323E1BA89424520D19DF84700CB
:10E370009DF8462042EA002295B202F001023A746A
:10E38000C5F340027A7415F00305C85818BF01257B
:10E39000FEF7F0FFA8420AD02069002800F01281A1
:10E3A00003683A685E6921462B46B0470AE10136A8
:10E3B000C0E702460146208FFFF770FC02E1BDF87E
:10E3C0003A2072BBBDF840500DA913460C26AB4253
:10E3D0001CDA94F864700020B84214DAA26E91F846
:10E3E00010C006FB002292F806E0F44509D1B1F80E
:10E3F0000EC0B2F804E0F44503D1D1F812009060E9
:10E4000001E00130E8E701330831E0E70DAB03EB51
:10E41000C5050022A989013189B2208FFFF72AFCA6
:10E42000D0E094F864200C20934280F2CB80A16E5F
:10E4300000FB03110D8915B14D89002D4BD101331E
:10E44000F2E7BDF83A2094F86C30002A36D1A66E77
:10E4500003EB430306EB83030A259B6805930DAB8F
:10E460009A8905FB0235AB4223D0002194F86D2038
:10E47000914219DA226F94F86C0002EB011200EB62
:10E48000400056F82070506887420BD11F7C907A6C
:10E49000874207D11089DF89874201BF987C1073BA
:10E4A000D88AD0810131E1E7DA8AADF814200A3345
:10E4B000D9E705A9208FFFF7DFFB83E001330C22AA
:10E4C00094F864005A4383420CDAA16E11440D891A
:10E4D0002DB14D891DB184F86C300831EAE7013364
:10E4E0000C32F0E7206900286CD00368DB68214615
:10E4F000984767E0BDF83A1084F8740040F20512BE
:10E50000914201D1E268CAB9BDF8401094F86D009B
:10E510000023834256DA226F02EB0312D5898D4223
:10E520003BD00133F5E7BDF83A1084F8740040F2AF
:10E530000512914246D1E268002A43D01A0E8DF8A6
:10E54000183042F00102DBB28DF8172043F00103CE
:10E55000032262F306138DF8143007238DF815306B
:10E5600005A91023208F8DF81630FFF77DFB29E0D9
:10E570009DF84230BDF84050022B03D12946208F30
:10E58000FFF780FB94F86D1000238B421ADA226F9C
:10E5900002EB0312D089A8420CD1206990B19DF8FA
:10E5A00044100368009112689D690DF146032146ED
:10E5B000A84707E00133E8E700231A468521208FAA
:10E5C000FFF754FB54B0BDE8F08710B50446FFF7E1
:10E5D00073FB206F08B102F0D5FCA06E08B102F009
:10E5E000D1FC206E08B102F0CDFC002384F85D3030
:10E5F00084F8643084F86D3010BD000010B5054B10
:10E6000003600446FFF7E1FF2046FEF7ECFE2046DC
:10E6100010BD00BF8418020010B50446FFF7EEFFDE
:10E62000204601F02FFF204610BD07B51288ADF837
:10E630000020ADF802106A4601464FF6FF700193C4
:10E64000FFF728FB03B05DF804FB00002DE9F04F55
:10E65000EDB0002605464FF0020B8A46994631463A
:10E660009DF8E831019308A81746769C9DF8E08153
:10E670008DF820B08DF821608DF822608DF8236030
:10E68000FFF718FBC94B0993142231460DA802F07D
:10E690009BFC0A2309A9ADF834300DA801238DF89D
:10E6A00040308DF83C30FFF7FBFA2822ADF82C20E3
:10E6B0005022ADF82E200BA84FF4C872ADF83220CE
:10E6C000ADF83060FFF7CCFA3046FFF7C5FA6B754E
:10E6D0000623AB75032385F814B085F83330BAF1FF
:10E6E000000F22D00FB35F4456451EDA95F8330071
:10E6F00017F8023C2A1801331375023017F8013C51
:10E700005375C0B285F83300284417F8022C3946F7
:10E71000143002F04EFC17F8023C95F833201344F5
:10E7200085F8333001361637DEE70DF1900AB9F17E
:10E73000000F1ED0FCB14FF0000BA71C5B46CB4571
:10E740001ADA17F8024C17F8011C621C0AF80320A9
:10E750009E1C0AEB0302F6B251700AEB0600224639
:10E760003946344402F025FC0BF1010BE3B21637B5
:10E77000E5E74B4600E02346524695F8331005F195
:10E780001400FFF761FA0020FFF768FA002442F650
:10E79000030644450DDA779B53F82400FEF711FD7C
:10E7A000B04202BF95F85D30013385F85D30013429
:10E7B000EFE795F85D000338C0B285F85D0000EB27
:10E7C0008000800002F0D6FB00262866ADF81460B9
:10E7D0000296B146464580F2BE81779B53F82640AB
:10E7E0002046FEF7ECFC014617A8FFF7F7F917A83B
:10E7F000FFF724FA074617A8FFF722FA022809D1E3
:10E800007A783B7843EA0223ADF8283001238DF86B
:10E810002A301CE03B460DF1B00E07F1100C1868D1
:10E820005968724603C2083363459646F7D17A7B2E
:10E830003B7B43EA0223ADF828300DF12A01002387
:10E840002CA88DF8BD308DF8BC30FFF72FFA20468C
:10E85000FEF7B7FCB0F5205F204611D1FEF7AFFC04
:10E86000534902F06BFC002800F073812046FEF74C
:10E87000A6FC504902F062FC002800F06A8126E202
:10E88000FEF79FFC42F60303984240F0358104B145
:10E89000043C271D3846FEF792FC474902F04EFC27
:10E8A000B8B99DF8B030012262F3030362F3071395
:10E8B0008DF8B03023682046DB6898472368074608
:10E8C0001B6920469847394682B22CA8FFF7CAF93F
:10E8D0003FE13846FEF773FC384902F02FFC38B9A7
:10E8E00023682046DB6898470088FFF7B7F930E1D6
:10E8F0003846FEF764FC324902F020FC002800F0A4
:10E9000028812046FEF734FD236882461B69204695
:10E9100098472A6EADF8160009EB89014FEA810B82
:10E9200002EB0B0342F821400027029A5A601F7441
:10E930005F741C2239461DA802F046FB2AF0010331
:10E940001AF0300F8DF8743010D00123194663F39C
:10E9500007118DF81810194606AA63F3071163F31F
:10E9600042078DF819108DF81A70229200231AF0C0
:10E97000320FADF81C308DF81E300BD09DF81C30D6
:10E98000E968012262F3030301B1022262F3071373
:10E990008DF81C301AF00C0F1CD0EB6801228BB1E3
:10E9A0009DF81D3062F3030302220FE08020002057
:10E9B0006C1702007B170200711702007617020025
:10E9C000801702009DF81D3062F3030362F3071302
:10E9D0008DF81D309DF81E30012262F342038DF840
:10E9E0001E30236820469B6998479DF81E3080F0B2
:10E9F000010060F300038DF81E30771C47453CDAB8
:10EA0000779B53F827A05046FEF7DBFBB0F5245F59
:10EA100033D1BAF1000F01D0AAF1040A0AF10403BC
:10EA200018460393FEF7CBFBAC4902F087FB039B30
:10EA3000A0B9DAF8003050469B6898471E90DAF883
:10EA400000305046DB689847DAF80030ADF87C00BB
:10EA5000DB6850469847ADF87E000CE01846FEF79C
:10EA6000AEFB9F4902F06AFB28B9DAF80030504645
:10EA70009B68984720900137C0E71422002112A814
:10EA800002F0A2FA0DF1160A0AAB129307AB139328
:10EA9000BAF80030ADF85030236820469B6898479C
:10EAA0002B6EADF8540000275B44083312AA1DA951
:10EAB00038461697FFF7EAF8BAF80030BBB12CAB2E
:10EAC000BAF800200393974208DA2268394652695F
:10EAD00020469047039BD8550137F1E72B6E9B44A6
:10EAE00052462CAB0021BBF80800FFF79EFD09F150
:10EAF00001095FFA89F92CE02046FEF762FBB0F5C8
:10EB0000245F26D104B1043C271D3846FEF757FB8D
:10EB1000724902F013FBE0B13846FEF750FB714931
:10EB200002F00CFBA8B13846FEF749FB6E4902F033
:10EB300005FB70B13846FEF742FB694902F0FEFA68
:10EB400038B1D3E02CAB52460021BDF81400FFF7DA
:10EB50006CFD01363EE6019B23B3A3F102085FFA88
:10EB600088F6002442F60307B442B0461CDA799BCB
:10EB700053F824804046FEF724FBB0F5205F05D112
:10EB800095F86430013385F8643009E04046FEF7BB
:10EB900018FBB84202BF95F86D30013385F86D302F
:10EBA0000134E1E7DDF8048095F8640000EB4000F3
:10EBB000800002F0DFF9A86695F86D00000102F010
:10EBC000D9F9DDF8E4912867002609EB8808374673
:10EBD000B246C1456ED059F8044B2046FEF7EFFA15
:10EBE00001462CA8FEF7FAFF2CA8FFF727F883466A
:10EBF0002CA8FFF725F802280BD19BF801209BF8E1
:10EC0000003043EA0223ADF85C3001238DF85E301A
:10EC10001EE05B460DF1740E0BF1100C186859687C
:10EC2000724603C2083363459646F7D19BF80D2020
:10EC30009BF80C3043EA0223ADF85C300DF15E0125
:10EC400000231DA88DF881308DF88030FFF72EF855
:10EC50002046FEF7B6FAB0F5205F10D1AA6E07EB9A
:10EC600047018B00D01842F82140179A4260AA6EE3
:10EC70001344013700229A60FFB2A246A9E720465A
:10EC8000FEF79FFA42F603039842A2D1296F33019F
:10EC9000CA1804B1043CCC50C2F804A01799916082
:10ECA0002A6F1A44002111732A6F13440136D98147
:10ECB000F6B28EE7E86818B1FEF789FA00286DD140
:10ECC0002B6828469B6998476DB0BDE8F08F05AA70
:10ECD0000AA90120FEF7D8FF02943AE7E0180200E3
:10ECE000E5180200EA180200EF1802002368204627
:10ECF000DB68984712AF14220021ADF81C001DA854
:10ED000002F062F94FF0010A00233B806AF34203EC
:10ED1000BB7023682046DB689847BDF81C10BB78A1
:10ED2000EA6880B2401A18BF012060F30003BB708C
:10ED30003B782AB16AF30303022262F3071303E06C
:10ED40006AF303036AF307133B700AAB1E971D9324
:10ED50002368ADF87C10DB682046984700270DF14A
:10ED60001C0AADF8800005AA1DA938462197FEF7B8
:10ED70008FFFBAF80030002B3FF4EBAE0DF1B00B73
:10ED8000BAF800309F42BFF6DDAE236839461B69F2
:10ED9000204698470BF807000137F1E71C230022B3
:10EDA00005F13C01E868FEF734FA89E72DE9F04FF8
:10EDB00087B004460D46002601274FF014090DF1D7
:10EDC000060894F85D309E4252DA09FB06F3226E83
:10EDD00002EB030AD358AB4248D1636B9D4204D186
:10EDE000236829465B6A204698472B6828461B699A
:10EDF00098472B68ADF80600DB68BAF808B02846DB
:10EE000098474246034600215846FFF70EFC102261
:10EE1000002102A802F0D8F8BAF80830ADF808309E
:10EE20009AF81030CDF8108073B194F85C3053B17B
:10EE3000013B84F85C3002A90123208F8DF80A3051
:10EE4000FEF72AFF00E01F469AF8113073B194F8DC
:10EE50005C3053B1013B84F85C3002A90223208F5F
:10EE60008DF80A30FEF718FF00E01F460136A8E7CC
:10EE7000384607B0BDE8F08F10B50446FEF7BAFA81
:10EE80000F4B236000214FF6FF7304F13C0084F820
:10EE900033106163238784F85C1084F85D10216669
:10EEA00084F86410A16684F86C1084F86D102167F2
:10EEB00084F87410A0651C2202F086F8204610BD6C
:10EEC0008418020001607047F8B5104C0F460178B5
:10EED00020461E461546FEF7A4F8032000F082FDEA
:10EEE00039462046FDF7BAFF032000F07BFD294696
:10EEF00032462046FDF794FF052000F073FD2046C2
:10EF00000121BDE8F840FEF796B800BF802300203D
:10EF1000F8B50C4605460178154816461F46FEF71B
:10EF200080F8032000F05EFD21461148FDF796FFB2
:10EF3000052000F057FD00210D48FEF77CF804463F
:10EF4000A0B901233A4629780948FEF715F8084880
:10EF5000FDF781FF651C48B10548FDF791FFE4B25C
:10EF60003055042000F03EFD2C46F0E7F8BD00BF10
:10EF70008023002073B501230DF107020F21054600
:10EF8000FFF7C6FF044608B131494BE0314932482A
:10EF900000F098FE10229DF807102F4800F0EEFEBA
:10EFA0009DF80730142B01D02C493BE040238DF80D
:10EFB00007300DF10702012318212846FFF784FFCF
:10EFC000044608B126490CE002238DF807300DF104
:10EFD000070201231B212846FFF776FF044620B1D4
:10EFE00020491D4800F090FE1FE001230DF10702AB
:10EFF00018212846FFF78CFF044608B11A4911E092
:10F000009DF8073003F0180663F07F038DF8073092
:10F010000DF10702012318212846FFF755FF04468A
:10F0200028B112490C4800F079FE20460DE0082E68
:10F0300005D0102E06D046B94FF4804304E04FF4BB
:10F04000005301E04FF48053AB8002B070BD00BFAD
:10F05000F4180200071902005424002029190200A4
:10F060003A1902006419020086190200A61902006A
:10F07000062310B50A461946FFF74AFF044618B1A1
:10F080000249034800F04AFE204610BDD119020093
:10F090005424002037B50C4669460546FFF7E8FFC3
:10F0A00088BB9DF802309DF803209DF8051043EAC7
:10F0B00002229DF8043043EA0123A9889DF80150FB
:10F0C00007EE101A9DF8001041EA052109B207EE7B
:10F0D000901AB8EEC77AF8EEE77A12B2C7EE876AEE
:10F0E0001BB207EE902AF8EEE77AC4ED006AC7EE8D
:10F0F000876A07EE903AF8EEE77AC4ED016AC7EE48
:10F10000876AC4ED026A03B030BD000000F060B849
:10F11000D0B52DED048BB0EE409AF0EE609A294CFC
:10F120008AB000F04BF994F90030B0EE408AF0EE6E
:10F13000608A01330FD0B0EE490AF0EE690A00F0A0
:10F14000D3FB40B10026002751EC190B32463B4659
:10F1500001F0E2FD38B9B0EE480AF0EE680A0AB0F4
:10F16000BDEC048BD0BD184B247801930122002301
:10F170008DED049B8DED029B009208936CB9CDE957
:10F180000667684600F0DEFB88B1089BA3B99DEDD9
:10F19000060B0AB0BDEC048BD0BD32463B46304670
:10F1A000394601F071FC022CCDE90601E9D101F0EC
:10F1B00087FE21230360E8E701F082FE089B0360DD
:10F1C000E5E700BF89200020701A0200000000005F
:10F1D00051EC110B43422DE9F047034321F0004865
:10F1E000754F48EAD373BB4255EC104B49D8634284
:10F1F000234325F0004A4AEAD373BB42A94640D8CC
:10F2000001F1404303F5801303438E4650D08E171F
:10F2100006F0020654EA0A0346EAD57639D050EAE7
:10F2200008033ED0B84555D0BA453AD0C8EB0A08D5
:10F230004FEA2858B8F13C0F40DC002970DB024649
:10F240000B462046294601F01FFC41EC100B00F054
:10F2500043FB00F085F951EC100B012E5AD0022E21
:10F2600048D0002E42D03EA3D3E9002301F02EF96E
:10F270003DA3D3E9002301F029F941EC100BBDE8CF
:10F28000F08722462B4601F023F941EC100BBDE834
:10F29000F087022E16D0032E0ED19FED350BBDE860
:10F2A000F087B9F1000F11DB9FED330BBDE8F0875C
:10F2B000BDE8F04700F054B9BDE8F0872EA1D1E9D0
:10F2C0000001CAE79FED280BBDE8F0879FED2C0BEE
:10F2D000BDE8F087C24529D0022EF3D0032EDCD042
:10F2E000012E2DD09FED280BBDE8F08741EC100BCF
:10F2F000BDE8F0871AA3D3E9002301F0E7F802463E
:10F300000B4619A1D1E9000101F0E0F841EC100B26
:10F31000BDE8F08701F1004141EC100BBDE8F0873A
:10F3200018F13C0F8BDA0020002196E7022E13D053
:10F33000032E0DD0012E07D09FED150BBDE8F087F1
:10F340009FED150BBDE8F0879FED150BBDE8F0872D
:10F350009FED150BBDE8F0879FED150BBDE8F0871D
:10F36000075C143326A6A13C182D4454FB21094008
:10F37000182D4454FB2109C0182D4454FB21F93F9A
:10F38000182D4454FB21F9BF0000000000000000CC
:10F39000182D4454FB21E93F0000000000000080CC
:10F3A000182D4454FB21E9BFD221337F7CD902C000
:10F3B000D221337F7CD902400000F07F2DE9F0415B
:10F3C000654955EC104B0E462940B14200F097803C
:10F3D000002D2B4610EE102A74DD2F157FD0A7F2DA
:10F3E000FF37C3F31303F90743F4801365D403EB2A
:10F3F000D27100260B447F105200B64616204FF4FF
:10F4000000110EEB01049C424FEAD2754FEA420212
:10F4100003DC1B1B04EB010E0E44013805EB430318
:10F420004FEA5101EDD1844620244FF0004109E01C
:10F4300020D003EBD275013C4FEA51012B444FEA37
:10F44000420220D09E4501EB0C05F1DA002D05EBC0
:10F45000010C09DBF0469542CEEB030300D9013BDA
:10F46000521B0844C646E4E7BCF1000FF2DB0EF184
:10F470000108F0E795421ED8002D05EB010C50DB8A
:10F4800098460023ECE7134304D0421C4DD000F013
:10F490000103184440087110F30701F17F5101F591
:10F4A000001148BF40F0004001EB0753024643EC17
:10F4B000102BBDE8F0817346BBE75B0003EBD27312
:10F4C000520094E725F00041214328D0ADBB2F46E0
:10F4D000D30A153F5205002BFAD0DD0228D40021B3
:10F4E00000E001465B00DC0201F10100F9D5C0F14A
:10F4F000200422FA04F423437F1A82406FE710EEBF
:10F50000102A2B4610EE100A294601F093F92246E4
:10F510002B4600F0DDFF41EC100BBDE8F081BDE8AB
:10F52000F081BCF1000FABDBA1E701362046B2E76A
:10F5300020244FF0FF310020DBE710EE102A2B468D
:10F540002046294600F0C2FF02460B4601F09CFA15
:10F5500041EC100BBDE8F0810000F07F00000000DE
:10F560002DE9F84F55EC104BD14B25F000469E424B
:10F57000AB4610DDCF4B9E4200F3B28000F0AD8071
:10F58000BBF1000F40F3FD80ADA5D5E9004545EC8A
:10F59000104BBDE8F88FC84B9E4200F3C080A3F12A
:10F5A000DE739E4240F3A8804FF0FF3A22462B467E
:10F5B0002046294601F03EF902460B468046894620
:10F5C00001F038F9A0A3D3E9002306460F4601F065
:10F5D00031F99FA3D3E9002300F07AFF32463B467E
:10F5E00001F028F99CA3D3E9002300F071FF324613
:10F5F0003B4601F01FF99AA3D3E9002300F068FF0E
:10F6000032463B4601F016F997A3D3E9002300F0F8
:10F610005FFF32463B4601F00DF995A3D3E9002385
:10F6200000F056FF42464B4601F004F992A3D3E99D
:10F630000023804689463046394601F0FBF890A306
:10F64000D3E9002300F042FF32463B4601F0F2F8D6
:10F650008DA3D3E9002300F039FF32463B4601F089
:10F66000E9F88BA3D3E9002300F030FF32463B4694
:10F6700001F0E0F888A3D3E9002300F027FF324629
:10F680003B4601F0D7F8BAF1FF3F02460B467CD06B
:10F690004046494600F01CFF22462B4601F0CAF8BE
:10F6A000864E874B4FEACA0A56449A44DAE9002349
:10F6B00000F00CFF22462B4600F008FF02460B46E6
:10F6C000D6E9000100F002FFBBF1000F52DB044657
:10F6D0000D4645EC104BBDE8F88F002C3FF450AFC1
:10F6E00022462B462046294600F0F2FE04460D46EF
:10F6F00045EC104BBDE8F88F69A3D3E9002310EE69
:10F70000100A294600F0E4FE00226E4B01F022FBB5
:10F7100000283FF449AF45EC104BBDE8F88F00F0EE
:10F72000DBF8694B9E4255EC104B3FDCA3F55023B0
:10F730009E4268DC10EE102A10EE100A2B46294675
:10F7400000F0C6FE00225F4B00F0C0FE002206461D
:10F750000F464FF080432046294600F0B9FE02468E
:10F760000B463046394601F08FF94FF0000A044647
:10F770000D461BE7044601F1004545EC104BBDE882
:10F78000F88F49A5D5E90045B2E74046494600F063
:10F790009FFE22462B4601F04DF802460B462046BE
:10F7A000294600F093FE04460D46A1E7474B9E42D2
:10F7B0001DDC10EE100A0022454B294600F086FEA3
:10F7C000002206460F46424B2046294601F032F8F9
:10F7D00000223C4B00F07CFE02460B463046394688
:10F7E00001F052F94FF0020A04460D46DEE62B46C0
:10F7F00010EE102A0020374901F046F94FF0030AB5
:10F8000004460D46D2E610EE100A00222D4B294682
:10F8100000F05CFE002206460F462A4B2046294691
:10F8200000F056FE02460B463046394601F02CF9F0
:10F830004FF0010A04460D46B8E600BFAFF3008062
:10F84000182D4454FB21F93F11DA22E33AAD903FE1
:10F85000EB0D76244B7BA93F513DD0A0660DB13F07
:10F860006E204CC5CD45B73FFF8300922449C23F6F
:10F870000D5555555555D53F2F6C6A2C44B4A2BF34
:10F880009AFDDE522DDEAD3F6D9A74AFF2B0B33FFC
:10F89000711623FEC671BC3FC4EB98999999C93F74
:10F8A0009C7500883CE4377E182D4454FB21F9BF39
:10F8B000FFFF0F440000F07FFFFFDB3F981A0200BC
:10F8C000781A02000000F03FFFFFF23FFF7F034085
:10F8D0000000F83F0000F0BF53EC102B23F0004372
:10F8E00043EC102B704700BF53EC102B33F000415A
:10F8F00010B408D01148A3F58014844208D804201D
:10F900005DF8044B70471AB902205DF8044B70474C
:10F9100003F1FF43094803F5E0038342EFD9B1F552
:10F92000801F01D20320EBE7054B994201D0002054
:10F93000E6E7B2FA82F04009E2E700BFFFFFDF7FAF
:10F940000000F07F002070470649074A074B9B1ACA
:10F9500003DD043BC858D050FBDC00F0D5F8FCF7C1
:10F96000A1FD0000981C020080200020182100202A
:10F97000FEE7FEE7FEE7FEE7FEE7FEE7FEE7FEE75F
:10F98000FEE7FEE7094B1968094B30B5D3F80405CB
:10F990000A060B0A02434FF47A71A2FB014501FBF0
:10F9A0000355E00B40EA454030BD00BF5024002025
:10F9B00000100140084B1968084B30B5D3F8040516
:10F9C0000A060B0A06490243A2FB014501FB035547
:10F9D000E00B40EA454030BD5024002000100140BB
:10F9E00040420F0038B5044648B1FFF7CBFF05464B
:10F9F00000F01AF8FFF7C6FF401B8442F8D838BD64
:10FA0000074B0022C3F8042182B0D3F80431054A21
:10FA10000193019B13680133DBB2136002B070479E
:10FA20000010014050240020704700001F281BD800
:10FA30000E4B53F82030032916D8DFE801F0020EF0
:10FA4000060A03F5E07300210AE003F5E0730C21D8
:10FA500006E003F5E073042102E003F5E0730321FF
:10FA60004FF0A04242F82310704700BFF019020087
:10FA70001F280CD8064B53F8200001234FF0A0425A
:10FA8000834011B9C2F80C357047C2F80835704789
:10FA9000F01902000C4B1B78062B10D10B4B1B6886
:10FAA0001A070CD10A4B186800F0F003302B08D06D
:10FAB00000F0E000A0F14003584258417047002098
:10FAC00070470120704700BFE00F00F0E40F00F026
:10FAD000E80F00F0094B1B78062B0CD1084B1B6874
:10FAE0001A0708D1074B186800F0F000A0F13003A6
:10FAF0005842584170470020704700BFE00F00F0A7
:10FB0000E40F00F0E80F00F008B5FFF7E3FF10B1D5
:10FB10004B4B4C4A1A60FFF7BDFF28B14A4B4B4A8A
:10FB20001B68C3F342331360FFF7D4FF20B1484A88
:10FB3000D36823F08073D360FFF7ACFF40B14FF080
:10FB400080430022C3F80C21C3F81021C3F83825E4
:10FB5000FFF7C0FF10B13F4B03221A60FFF7BAFF57
:10FB600040B13D4B05221A6001229A6700229A603B
:10FB70003F225A60394B1B78062B09D1384B1B6842
:10FB80001B0705D1374B1B6803F0F003502B0ED039
:10FB9000354AD2F8883043F47003C2F88830BFF396
:10FBA0004F8FBFF36F8F314B314A1A6008BD4FF052
:10FBB0008052304BD2F80414C3F82015D2F8081440
:10FBC000C3F82415D2F80C14C3F82815D2F8101471
:10FBD000C3F82C15D2F81414C3F83015D2F8181441
:10FBE000C3F83415D2F81C14C3F84015D2F8201409
:10FBF000C3F84415D2F82414C3F84815D2F82814D1
:10FC0000C3F84C15D2F82C14C3F85015D2F83014A0
:10FC1000C3F85415D2F83414C3F86015D2F8381468
:10FC2000C3F86415D2F83C14C3F86815D2F8401430
:10FC3000C3F86C15D2F84424C3F87025A8E700BFB8
:10FC400074C007400DF0ADBA440200103C050040FE
:10FC5000F0ED00E0A005004010560040E00F00F07D
:10FC6000E40F00F0E80F00F000ED00E08C20002031
:10FC70000090D00300C000402DE9F04106460D463B
:10FC800001EB02080C464445A4EB050707D0336896
:10FC900014F8011B1B68304698470028F3D13846FA
:10FCA000BDE8F08170B505460C46084649B101F043
:10FCB00057FA2B680246214628465B68BDE870402B
:10FCC000184770BD08B5FFF7EDFF08BD03688A68E7
:10FCD0005B680968184708B5FFF7E4FF08BD0368CB
:10FCE0001B68184708B50249FFF7DCFF08BD00BFD5
:10FCF000B81A020038B50546FFF7E8FF0446284663
:10FD0000FFF7F0FF204438BD38B50546FFF7CAFFBE
:10FD100004462846FFF7E6FF204438BDFFF7F4BF4E
:10FD2000F0B58BB000238DF82430012A98BF0A2249
:10FD30000DF12305B1FBF2F402FB1416F3B2092E08
:10FD400094BF30333733DBB22F46214605F80139F3
:10FD5000002CEFD13946FFF7A5FF0BB0F0BD10B472
:10FD60002AB903685DF8044B1B68C9B21847D2B2C0
:10FD70005DF8044BFFF7D4BFFFF7F1BF38B5054678
:10FD8000FFF7EDFF04462846FFF7ACFF204438BDDF
:10FD90002DE9F04107460E4615462AB90368C9B257
:10FDA0001B68BDE8F04118470A2A02D1002901DA90
:10FDB00004E0D2B2BDE8F041FFF7B2BF2D21FFF75A
:10FDC0008EFF2A46044671423846FFF7A9FF2044B9
:10FDD000BDE8F08138B50546FFF7DAFF044628464E
:10FDE000FFF780FF204438BD2DE9F843804657ECEB
:10FDF000106B0D46FFF778FD08B9424910E047EC5B
:10FE0000106BFFF771FD012801D13F4908E04FF069
:10FE100060423E4B3046394600F09CFF28B13C49D9
:10FE20004046FFF73FFFBDE8F8834FF06042394B93
:10FE30003046394600F070FF0028F0D10022002340
:10FE40003046394600F068FF40B12D214046FFF7AB
:10FE500046FF07F1004304461F4600E004462E49D2
:10FE60004FF0000900205FFA89F39D4206D9002275
:10FE70002A4B00F009FE09F10109F4E732463B463E
:10FE800000F026FB0F46064600F096FF0A220146C8
:10FE900081464046FFF744FF04447DB3484600F0E6
:10FEA00053FC02460B463046394600F00FFB06462F
:10FEB0000F4640461A49FFF7F5FE0444174B00224F
:10FEC0003046394600F0B6FC0F46064600F04CFFBF
:10FED0000A22014681464046FFF75AFF044448463D
:10FEE00000F042FC02460B463046394600F0EEFA7E
:10FEF000013D15F0FF0506460F46DFD12046BDE85F
:10FF0000F88300BFBB1A0200BF1A0200FFFFEF41D7
:10FF1000C31A0200FFFFEFC10000E03F00002440D1
:10FF2000C71A0200C9B2FFF75FBF38B5C9B20546AC
:10FF3000FFF75AFF04462846FFF7D4FE204438BD99
:10FF400010B540220446002101F03EF8002323644E
:10FF50006364204610BD026C10B5531C446C03F062
:10FF60003F039C421CBF8154036410BD0023036403
:10FF700043647047436C026C93421FBFC25C013301
:10FF800003F03F03436414BF10464FF0FF30704747
:10FF9000036C406C181A48BF40307047436C026CC9
:10FFA000934214BFC05C4FF0FF307047036C406C4D
:10FFB000013303F03F031B1A584258417047012098
:10FFC000704703681322DB69184770470369C3F859
:10FFD0001C15D3F81C21002AFBD00022C3F81C21D9
:10FFE0000120704790F85C305AB2520910B40121D8
:10FFF00020320F4C03F01F0301FA03F344F82230C0
:020000022000DC
:1000000003695DF8044B0422C3F8082300225960F9
:10001000D960C3F800254FF0FF32C3F80C25143027
:10002000C3F81425C3F80825C3F81025FFF79EBFB1
:1000300000E100E01430FFF7ABBF1430FFF7AEBFB4
:100040001430FFF797BF0000026990F85E3030B5BA
:10005000C2F80C3590F85D30C2F8143590F8613074
:10006000012B01BF90F85F40C2F8104590F8604046
:10007000C2F8084518BF0023B1F5966FC2F86C3579
:100080002ED9B1F5166F2ED9B1F5965F2ED9B1F5EF
:10009000165F2DD9B1F5615F2CD9B1F5964F2BD9EB
:1000A000B1F5E14F2AD9B1F5164F29D9B1F5614F14
:1000B00029D9B1F5963F29D9B1F5E13F28D9B1F554
:1000C000613F28D9344B994228D9B1F5E12F28D97D
:1000D000B1F5612F8CBF4FF080534FF0706322E079
:1000E0004FF49E231FE04FF41D231CE02B4B1AE01E
:1000F0002B4B18E02B4B16E02B4B14E02B4B12E054
:100100004FF41D030FE04FF46B030CE0284B0AE0A3
:100110004FF0EB7307E04FF06C7304E04FF0806337
:1001200001E04FF0E863C2F8243500210423C2F84F
:100130000035C2F80811C2F81C110121116091604C
:10014000C2F8043390F85C2053B2D2B202F01F051B
:100150005C09A9406034174D002B45F8241006DADD
:10016000154B02F00F02134460221A7606E003F1E9
:10017000604303F56143602283F8002390F85C300C
:1001800001215AB203F01F0301FA03F3520909498E
:1001900041F8223030BD00BF90D0030000B0130002
:1001A0000050270000F03A0000A04E0000C075008B
:1001B00000903A0100E100E0FCEC00E02DE9F041A4
:1001C0001E464FF47A73002583600E4B456004464B
:1001D00040F8143B17468846FFF7B2FE0A4AC4F8B7
:1001E000108052F8263084F85D309DF8183084F87D
:1001F0005C7052F8233084F85E3084F861502046F9
:10020000BDE8F081D41A0200F01902000369D3F8A6
:10021000082110B504464AB1D3F818151430C9B2F4
:10022000FFF799FE23690022C3F8082110BD0000E2
:100230000148FFF7EBBF00BF5424002007B5172388
:1002400000930222182303490348FFF7B7FF03B0C6
:100250005DF804FB002000405424002010B5044643
:10026000006800F08FFE204610BD10B504460068FF
:1002700008B100F087FE00232360A360636010BD17
:1002800038B504460D460068013100F03FFF10B15B
:1002900084E82100012038BD036810B5044613B17D
:1002A00043688B4207D22046FFF7EAFF20B1A368DC
:1002B0000BB922681370012010BD70B50E461146AF
:1002C00004461546FFF7E8FF18B92046FFF7CDFFB3
:1002D00004E0A5603146206800F03AFF204670BD7A
:1002E00038B5002304460360436083600D4639B18E
:1002F000084600F035FF294602462046FFF7DDFF9D
:10030000204638BD38B5054600680C4660B16A68BD
:100310008B689A4206D3096800F01AFFA368AB60A5
:1003200000230AE000F02EFE23682B6063686B60F8
:10033000A368AB60002323606360A36038BD88427C
:1003400010B5044601D0FFF7DDFF204610BD38B5DB
:1003500005460C4641B1084600F002FF2146024620
:100360002846FFF7AAFF01E0FFF77FFF284638BDC8
:1003700010B5044600238AB023606360A36008467A
:1003800001A900F0F4FD01A92046FFF7E0FF204697
:100390000AB010BD1FB50446002323606360A3604C
:1003A000084601A901F04CF801A92046FFF7CFFF4C
:1003B000204604B010BD70B504460E4609B90020B1
:1003C00070BD6AB18368D5182946FFF765FF00281C
:1003D000F5D02068A3683146184400F0B9FEA56046
:1003E000012070BD8A680968FFF7E5BF38B505468A
:1003F0000C46084641B100F0B3FE214602462846AD
:10040000BDE83840FFF7D7BF38BD000083688B4296
:1004100001D9006818B903480023037070470844E5
:10042000704700BFB824002070B50E469AB191B154
:1004300085689D4202D800230B7070BD541EED1AD2
:100440000168AC4228BF2C4619442246304600F0D1
:100450008FFE0023335570BD7047000008B500F0D3
:1004600013F8FFF7F9FF0120FFF7BCFAFCF7ECFBEC
:10047000034CFCF70DFA002CFBD0AFF30080F8E73B
:100480000000000000F07EBD0D4BE02283F8112338
:100490004FF40032C3F880211A604FF080430222EB
:1004A0000121C3F81825996003F588330020C3F8AB
:1004B0000805C3F84423C3F804231960704700BF3C
:1004C00000E100E081F0004102E000BF83F0004362
:1004D00030B54FEA41044FEA430594EA050F08BFDF
:1004E00090EA020F1FBF54EA000C55EA020C7FEAA3
:1004F000645C7FEA655C00F0E2804FEA5454D4EB20
:100500005555B8BF6D420CDD2C4480EA020281EAE9
:10051000030382EA000083EA010180EA020281EA21
:100520000303362D88BF30BD11F0004F4FEA013173
:100530004FF4801C4CEA113102D0404261EB410182
:1005400013F0004F4FEA03334CEA133302D0524208
:1005500063EB430394EA050F00F0A780A4F10104C4
:10056000D5F1200E0DDB02FA0EFC22FA05F28018FE
:1005700041F1000103FA0EF2801843FA05F35941E4
:100580000EE0A5F120050EF1200E012A03FA0EFC63
:1005900028BF4CF0020C43FA05F3C01851EBE3718D
:1005A00001F0004507D54FF0000EDCF1000C7EEBAA
:1005B00000006EEB0101B1F5801F1BD3B1F5001FE8
:1005C0000CD349085FEA30004FEA3C0C04F1010407
:1005D0004FEA445212F5800F80F09A80BCF1004F30
:1005E00008BF5FEA500C50F1000041EB045141EAB2
:1005F000050130BD5FEA4C0C404141EB010111F4B3
:10060000801FA4F10104E9D191F0000F04BF01465D
:100610000020B1FA81F308BF2033A3F10B03B3F13B
:1006200020020CDA0C3208DD02F1140CC2F10C02CB
:1006300001FA0CF021FA02F10CE002F11402D8BF29
:10064000C2F1200C01FA02F120FA0CFCDCBF41EAF5
:100650000C019040E41AA2BF01EB0451294330BDC4
:100660006FEA04041F3C1CDA0C340EDC04F11404A1
:10067000C4F1200220FA04F001FA02F340EA030078
:1006800021FA04F345EA030130BDC4F10C04C4F1BE
:10069000200220FA02F001FA04F340EA030029469E
:1006A00030BD21FA04F0294630BD94F0000F83F4E8
:1006B000801306BF81F480110134013D4EE77FEACB
:1006C000645C18BF7FEA655C29D094EA050F08BF17
:1006D00090EA020F05D054EA000C04BF19461046F8
:1006E00030BD91EA030F1EBF0021002030BD5FEA3C
:1006F000545C05D14000494128BF41F0004130BD64
:1007000014F580043CBF01F5801130BD01F00045B7
:1007100045F0FE4141F470014FF0000030BD7FEA2A
:10072000645C1ABF194610467FEA655C1CBF0B4625
:10073000024650EA013406BF52EA033591EA030F3C
:1007400041F4002130BD00BF90F0000F04BF002134
:10075000704730B54FF4806404F132044FF0000567
:100760004FF0000150E700BF90F0000F04BF0021E0
:10077000704730B54FF4806404F1320410F0004546
:1007800048BF40424FF000013EE700BF42004FEA41
:10079000E2014FEA31014FEA02701FBF12F07F43BE
:1007A00093F07F4F81F06051704792F0000F14BFBB
:1007B00093F07F4F704730B54FF4607401F00045FF
:1007C00021F0004120E700BF50EA010208BF704756
:1007D00030B54FF000050AE050EA010208BF70474B
:1007E00030B511F0004502D5404261EB41014FF4B4
:1007F000806404F132045FEA915C3FF4DCAE4FF0B8
:1008000003025FEADC0C18BF03325FEADC0C18BF9E
:10081000033202EBDC02C2F1200300FA03FC20FAEF
:1008200002F001FA03FE40EA0E0021FA02F114443C
:10083000C1E600BF70B54FF0FF0C4CF4E06C1CEA51
:1008400011541DBF1CEA135594EA0C0F95EA0C0FC6
:1008500000F0DEF82C4481EA030621EA4C5123EA39
:100860004C5350EA013518BF52EA033541F4801168
:1008700043F4801338D0A0FB02CE4FF00005E1FB1B
:1008800002E506F00042E0FB03E54FF00006E1FB65
:1008900003569CF0000F18BF4EF0010EA4F1FF04A8
:1008A000B6F5007F64F5407404D25FEA4E0E6D41E8
:1008B00046EB060642EAC62141EA55514FEAC520F9
:1008C00040EA5E504FEACE2EB4F1FD0C88BFBCF575
:1008D000E06F1ED8BEF1004F08BF5FEA500E50F126
:1008E000000041EB045170BD06F0004646EA0101EC
:1008F00040EA020081EA0301B4EB5C04C2BFD4EB1E
:100900000C0541EA045170BD41F480114FF0000E16
:10091000013C00F3AB8014F1360FDEBF002001F084
:10092000004170BDC4F10004203C35DA0C341BDCFE
:1009300004F11404C4F1200500FA05F320FA04F0D0
:1009400001FA05F240EA020001F0004221F0004104
:1009500010EBD37021FA04F642EB06015EEA430E77
:1009600008BF20EAD37070BDC4F10C04C4F12005A7
:1009700000FA04F320FA05F001FA04F240EA02005A
:1009800001F0004110EBD37041F100015EEA430E2B
:1009900008BF20EAD37070BDC4F1200500FA05F24B
:1009A0004EEA020E20FA04F301FA05F243EA0203CA
:1009B00021FA04F001F0004121FA04F220EA0200D9
:1009C00000EBD3705EEA430E08BF20EAD37070BD1F
:1009D00094F0000F0FD101F00046400041EB0101FF
:1009E00011F4801F08BF013CF7D041EA060195F0E1
:1009F000000F18BF704703F00046520043EB03039B
:100A000013F4801F08BF013DF7D043EA0603704787
:100A100094EA0C0F0CEA135518BF95EA0C0F0CD092
:100A200050EA410618BF52EA4306D1D181EA0301D8
:100A300001F000414FF0000070BD50EA410606BFD2
:100A40001046194652EA430619D094EA0C0F02D117
:100A500050EA013613D195EA0C0F05D152EA03365C
:100A60001CBF104619460AD181EA030101F000417A
:100A700041F0FE4141F470014FF0000070BD41F0C3
:100A8000FE4141F4780170BD70B54FF0FF0C4CF49D
:100A9000E06C1CEA11541DBF1CEA135594EA0C0FBC
:100AA00095EA0C0F00F0A7F8A4EB050481EA030E09
:100AB00052EA03354FEA013100F088804FEA0333F0
:100AC0004FF0805545EA131343EA12634FEA0222BE
:100AD00045EA111545EA10654FEA00260EF000417F
:100AE0009D4208BF964244F1FD0404F5407402D2D1
:100AF0005B084FEA3202B61A65EB03055B084FEA62
:100B000032024FF480104FF4002CB6EB020E75EB5E
:100B1000030E22BFB61A754640EA0C005B084FEA86
:100B20003202B6EB020E75EB030E22BFB61A754603
:100B300040EA5C005B084FEA3202B6EB020E75EB4E
:100B4000030E22BFB61A754640EA9C005B084FEAC6
:100B50003202B6EB020E75EB030E22BFB61A7546D3
:100B600040EADC0055EA060E18D04FEA051545EAC2
:100B700016754FEA06164FEAC30343EA52734FEA6B
:100B8000C2025FEA1C1CC0D111F4801F0BD141EAE4
:100B900000014FF000004FF0004CB6E711F4801F49
:100BA00004BF01430020B4F1FD0C88BFBCF5E06F29
:100BB0003FF6AFAEB5EB030C04BFB6EB020C5FEA39
:100BC000500C50F1000041EB045170BD0EF0004E8E
:100BD0004EEA113114EB5C04C2BFD4EB0C0541EAC0
:100BE000045170BD41F480114FF0000E013C90E6BD
:100BF00045EA060E8DE60CEA135594EA0C0F08BF81
:100C000095EA0C0F3FF43BAF94EA0C0F0AD150EA7F
:100C100001347FF434AF95EA0C0F7FF425AF104612
:100C200019462CE795EA0C0F06D152EA03353FF43A
:100C3000FDAE1046194622E750EA410618BF52EAB7
:100C400043067FF4C5AE50EA41047FF40DAF52EA8B
:100C500043057FF4EBAE12E74FF0FF3C06E000BF28
:100C60004FF0010C02E000BF4FF0010C4DF804CD35
:100C70004FEA410C7FEA6C5C4FEA430C18BF7FEAF5
:100C80006C5C1BD001B050EA410C0CBF52EA430C23
:100C900091EA030F02BF90EA020F0020704710F1A3
:100CA000000F91EA030F58BF994208BF90422CBF32
:100CB000D8176FEAE37040F0010070474FEA410C2B
:100CC0007FEA6C5C02D150EA013C07D14FEA430C49
:100CD0007FEA6C5CD6D152EA033CD3D05DF8040BBA
:100CE000704700BF8446104662468C4619466346EC
:100CF00000E000BF01B5FFF7B7FF002848BF10F1C3
:100D0000000F01BD4DF808EDFFF7F4FF0CBF012007
:100D100000205DF808FB00BF4DF808EDFFF7EAFF83
:100D200034BF012000205DF808FB00BF4DF808ED3E
:100D3000FFF7E0FF94BF012000205DF808FB00BF33
:100D40004DF808EDFFF7CEFF94BF012000205DF8BD
:100D500008FB00BF4DF808EDFFF7C4FF34BF0120CA
:100D600000205DF808FB00BF4FEA410212F50012B7
:100D700015D211D56FF47873B3EB625212D94FEAE2
:100D8000C12343F0004343EA505311F0004F23FACC
:100D900002F018BF404270474FF00000704750EA21
:100DA000013005D111F0004008BF6FF000407047DE
:100DB0004FF00000704700BF4A0011D212F5001238
:100DC00011D20DD56FF47873B3EB62520ED44FEAA3
:100DD000C12343F0004343EA505323FA02F0704723
:100DE0004FF00000704750EA013002D14FF0FF3061
:100DF00070474FF0000070474FEA4102B2F1E04304
:100E000024BFB3F5001CDCF1FE5C0DD901F0004CF1
:100E10004FEAC0024CEA5070B2F1004F40EB830041
:100E200008BF20F00100704711F0804F21D113F16D
:100E30003872BCBF01F00040704741F480114FEAA6
:100E40005252C2F11802C2F1200C10FA0CF320FA2F
:100E500002F018BF40F001004FEAC1234FEAD3234C
:100E600003FA0CFC40EA0C0023FA02F34FEA4303B6
:100E7000CCE77FEA625307D150EA01331EBF4FF03F
:100E8000FE4040F44000704701F0004040F0FE405A
:100E900040F40000704700BF0B460146184600F0C2
:100EA00001B8000010B5054C13462CB10A460146A6
:100EB0000220AFF3008010BD204610BD00000000EE
:100EC000014B1868704700BFF020002008B5074BA1
:100ED000044613B10021AFF30080054B1868836A04
:100EE00003B19847204600F0EBFA00BF0000000075
:100EF000001B020070B50E4B0E4CE41AA410002526
:100F00001E46A54204D056F8253098470135F8E72B
:100F100000F0D8FA084C094BE41AA41000251E462C
:100F2000A54204D056F8253098470135F8E770BD42
:100F3000F8200020F82000200C210020F8200020BC
:100F4000931E222B10B50C4602D90020087010BD4C
:100F50000A2A06D1002804DA2D230B704042012111
:100F600000E00021214400F02FFA204610BDFFF7D9
:100F7000E7BF0000024B0146186800F073B800BFDD
:100F8000F0200020024B0146186800F025B800BF91
:100F9000F020002010B501390244904207D010F82B
:100FA000013B11F8014FA342F7D0181B10BD0020E0
:100FB00010BD10B5431E0A44914204D011F8014BF4
:100FC00003F8014FF8E710BD02440346934202D0F4
:100FD00003F8011BFAE7704730B500293ED051F8FD
:100FE000042C0B1F1E49002AB8BF9B180A680C4628
:100FF00012B95A600B6030BD9A420ED91968581860
:10100000824204BF106852685A6004BF0918196010
:10101000236030BD994203D80A4651680029F9D1AE
:10102000146815199D420AD11B682344D0188142C7
:10103000136013D10868034413604B680DE002D9B4
:101040000C23036030BD18681C18A14204BF0C6853
:101050004968596004BF00191860536030BD00BF73
:10106000C024002070B5CD1C25F0030508350C2DDB
:1010700038BF0C25002D064603DA0C233360002010
:1010800070BDA942F9D81F4B1C681A462146A1B170
:101090000B685B1B0ED40B2B03D90B60CC18CD5007
:1010A0001EE08C420DBF63684B686360136018BF1D
:1010B0000C4615E00C464968E9E7134C23681BB958
:1010C000304600F02BF820602946304600F026F824
:1010D000431CD2D0C41C24F00304A0420AD12560D2
:1010E00004F10B00231D20F00700C31A09D05A4257
:1010F000E25070BD211A304600F010F80130EED1F8
:10110000BBE770BDC0240020BC240020024B0A466F
:101110000146186800F096B9F020002038B5064C5A
:10112000002305460846236000F0BCF9431C02D1A9
:10113000236803B12B6038BDC824002010F8012BB0
:1011400011F8013B012A28BF9A42F7D0D01A704704
:10115000034611F8012B03F8012B002AF9D170473F
:10116000034613F8012B002AFBD1181A01387047E7
:1011700010B5034642B111F8014B03F8014B013A97
:10118000002CF7D11A4400E010BD934202D003F8BE
:10119000014BFAE710BD00002DE9F04780464048BA
:1011A000D0F800900F463D4615F8014B09EB0400BE
:1011B000407800F0080000F0FF0608B12F46F2E783
:1011C0002D2C03D1BD1C7C78012603E02B2C04BF01
:1011D0007C78BD1C13B1102B0AD15BE0302C57D1A9
:1011E000287800F0DF0058284DD16C7810230235A4
:1011F000002E14BF4FF0004C6FF0004C0027BCFBDA
:10120000F3FA384603FB1ACC09EB040E9EF801E012
:101210001EF0040F01D0303C0BE01EF0030E1BD07B
:10122000BEF1010F0CBF4FF0370E4FF0570ECEEB53
:101230000404A34210DDB7F1FF3F0AD0504506D8A1
:1012400001D1644503DC03FB0040012701E04FF0BE
:10125000FF3715F8014BD7E77B1C0CD1002E4FF060
:10126000220314BF4FF000406FF00040C8F8003078
:101270002AB9BDE8F08706B1404272B107B1691ED4
:101280001160BDE8F0873024002BB1D10823AFE70F
:101290000A23ADE7302CA3D0AAE7BDE8F08700BF52
:1012A000F420002013460A46014602480068FFF772
:1012B00073BF00BFF02000202DE9F04780463C4876
:1012C000D0F800900E46354615F8014B09EB0400A6
:1012D000407800F0080000F0FF0708B12E46F2E762
:1012E0002D2C03D1B51C7478012703E02B2C04BFEF
:1012F0007478B51C13B1102B0AD153E0302C4FD1A8
:10130000287800F0DF00582845D16C78102302358A
:101310004FF0FF3C0026BCFBF3FC03FB0CFA6FEA2A
:101320000A0A304609EB040E9EF801E01EF0040F95
:1013300001D0303C0BE01EF0030E1AD0BEF1010FBD
:101340000CBF4FF0370E4FF0570ECEEB0404A34204
:101350000FDD002E08DB604506D801D1544503DCC3
:1013600003FB0040012601E04FF0FF3615F8014B6A
:10137000D8E7002E07DA2223C8F800304FF0FF30FC
:101380002AB9BDE8F08707B1404272B106B1691EC3
:101390001160BDE8F0873024002BB9D10823B7E7EE
:1013A0000A23B5E7302CABD0B2E7BDE8F08700BF29
:1013B000F420002013460A46014602480068FFF761
:1013C0007BBF00BFF0200020F0B51C4C8BB0034663
:1013D0000F466D4604F1200E206861682E4603C654
:1013E000083474453546F7D121793171911E206852
:1013F000306022294FF0000001D938701CE07D1EBA
:10140000B3FBF2F40AAE02FB14333344411C13F86D
:10141000283C05F8013F23460CB10846F0E77C5410
:101420003A18C11A8B4206DAF95C1478FC5402F8B7
:1014300001190133F5E738460BB0F0BD041B02007B
:10144000FFF7C2BFF8B5074615460E4621B911464B
:10145000BDE8F840FFF706BE1AB9FFF7BDFD284604
:10146000F8BD00F015F885420ED929463846FFF739
:10147000F9FD044650B131462A46FFF79AFD314640
:101480003846FFF7A9FD01E03046F8BD2046F8BD1B
:1014900051F8040C0028BEBF091851F8043CC018CC
:1014A00004387047044A05491368002B08BF0B46EF
:1014B0001844106018467047C4240020D02400202F
:1014C000FEE700BFF8B500BFF8BC08BC9E467047F9
:1014D000F8B500BFF8BC08BC9E467047000000008D
:1014E000000000006DC6010081C601007DD2010030
:1014F00081D2010085D201008DD2010015D40100F6
:10150000FFD20100B7D2010093D2010041707020D8
:10151000636F6D6D616E643A2000436F6E6E65633C
:10152000746564206576656E742C2063656E7472D4
:10153000616C3A2000446973636F6E6E6563746515
:1015400064206576656E742C2063656E7472616CC0
:101550003A2000207365727669636573206469734D
:10156000636F7665726564206576656E742C2063A2
:10157000656E7472616C3A200043686172616374D5
:1015800065726973746963206576656E742C207763
:10159000726974656E3A20006F6E006F6666006156
:1015A0003030300061303031006130303200613035
:1015B00030330054696D653A20002073005069741F
:1015C00063683A20002020526F6C6C3A2000202083
:1015D000616363583A200046002020616363593AF2
:1015E000200020206163635A3A200066696C6C65B4
:1015F0007239393939393939007374725069746301
:101600006820737472526F6C6C3A2000737461724C
:1016100074696E6709006B783032322E696E6974B6
:101620002829004368696C644D696E6400424C452A
:10163000204D6F62696C6520417070205065726941
:1016400070686572616C20696E697400424C414338
:101650004B0052454400475245454E00424C5545CB
:101660000059454C4C4F570042524F574E00505571
:1016700052504C45004F52414E47450050494E4B49
:1016800000574849544500000000000000000000D9
:101690005DCE010021CE010057CE010081CE0100B8
:1016A00087CE010055CE01000000000000000000C0
:1016B000D5D20100EDD201007DD2010081D201001E
:1016C00085D201008DD2010089D20100FFD2010034
:1016D000B7D2010093D2010000000000000000001A
:1016E000E7D30100E9D30100A3D30100A5D3010092
:1016F000A7D30100A9D30100ADD30100AFD30100EE
:10170000B1D30100B5D30100B9D30100BDD30100AD
:10171000C1D30100C5D30100C9D30100CDD301005D
:10172000D1D30100D5D30100D9D30100DDD301000D
:10173000E1D30100E3D30100E5D301000000000084
:101740000000000019D401002DD401007DD2010059
:1017500081D2010085D201008DD2010015D4010093
:10176000FFD20100B7D2010093D2010031383030EE
:1017700000326130300032613031003138303100B8
:10178000326130350041726475696E6F000000008F
:1017900000000000000000007FD501009FD501007F
:1017A00045D5010053D5010061D50100B9D501002F
:1017B000CDD501007BD501007DD501007DD501008F
:1017C000ADD8010009D901007DD401008DD40100FC
:1017D0009DD40100ADD40100BDD40100CDD40100E1
:1017E000DDD40100EDD4010005D5010015D50100BF
:1017F00025D5010035D50100FCFFFFFF00000000EA
:1018000085D4010095D40100A5D40100B5D4010010
:10181000F8FFFFFF00000000C5D40100D5D401008F
:10182000E5D40100FDD401000DD501001DD5010056
:101830002DD501003DD50100000000000000000092
:1018400055DA010057DA0100000000000000000036
:1018500045C6010059C601007DD2010081D20100B8
:1018600085D201008DD2010015D40100FFD2010004
:10187000B7D2010093D201003A000000000000003E
:1018800000000000FDE5010019E601004DE6010041
:101890001BE10100CBE501003FDF01000BE001008F
:1018A000A5DF0100ADED010041E00100BDDC01005C
:1018B000BDDC0100C9DC010007DD010055DD0100D0
:1018C000A3DD01001FDE010051DE0100C9DE0100C1
:1018D000CFDE0100ADDF0100CDDF010009E0010036
:1018E000323930310032393034003239303200325E
:1018F0003930330043616E2774206163636573730D
:10190000204B58303232004B583032325F57484FFC
:101910005F414D4920526567697374657220566155
:101920006C7565203D2030780043616E2774206619
:10193000696E64204B583032320043616E27742048
:101940007772697465204B5830323220434E544CC4
:1019500031207265676973746572206174206669ED
:101960007273740043616E27742077726974652006
:101970004B58303232204F44434E544C20726567EE
:1019800069737465720043616E27742072656164C7
:10199000204B5830323220434E544C312072656710
:1019A00069737465720043616E277420777269747D
:1019B00065204B5830323220434E544C31207265F2
:1019C000676973746572206174207365636F6E64F8
:1019D0000043616E277420676574204B58303232A3
:1019E00020616363656C2076616C756500000000A2
:1019F00000000000010000000200000003000000E1
:101A000004000000050000000600000007000000C0
:101A100008000000090000000A0000000B000000A0
:101A20000C0000000D0000000E0000000F00000080
:101A30001000000011000000120000001300000060
:101A40001400000015000000160000001700000040
:101A500018000000190000001A0000001B00000020
:101A60001C0000001D0000001E0000001F00000000
:101A70007371727400000000E2652F227F2B7A3CA4
:101A8000075C143326A6813CBDCBF07A8807703CF6
:101A9000075C143326A6913C4FBB610567ACDD3F64
:101AA000182D4454FB21E93F9BF681D20B73EF3F85
:101AB000182D4454FB21F93F0D0A006E616E006938
:101AC0006E66006F7666002E0000000000000000C9
:101AD00000000000CDFF010079FC0100350002008C
:101AE000410002003B000200CBFF0100C3FF0100E8
:101AF00049000200E5FF0100BFFF010043000000B4
:101B00009020002030313233343536373839616235
:101B1000636465666768696A6B6C6D6E6F7071721D
:101B2000737475767778797A000020202020202041
:101B3000202020282828282820202020202020207D
:101B4000202020202020202020208810101010107D
:101B500010101010101010101010040404040404CD
:101B600004040404101010101010104141414141B0
:101B70004101010101010101010101010101010115
:101B800001010101011010101010104242424242A6
:101B900042020202020202020202020202020202E5
:101BA00002020202021010101020000000000000CB
:101BB0000000000000000000000000000000000025
:101BC0000000000000000000000000000000000015
:101BD0000000000000000000000000000000000005
:101BE00000000000000000000000000000000000F5
:101BF00000000000000000000000000000000000E5
:101C000000000000000000000000000000000000D4
:101C100000000000000000000000000000000000C4
:101C200000000000000000000000000000000000B4
:101C300000000000000000000000000000000000A4
:101C40000000000000000000000000000000000094
:101C50000000000000000000000000000000000084
:101C60000000000000000000000000000000000074
:101C70000000000000000000000000000000000064
:101C80000000000000000000000000000000000054
:081C900014A8FF7F0100000011
:101C9800000000000F000000010100000090D003C8
:101CA800000000002C1C02004C1C02006C1C0200EE
:101CB800000000000000000000000000000000001C
:101CC800FC1A0200000000000000000000000000F4
:101CD80000000000000000000000000000000000FC
:101CE80000000000000000000000000000000000EC
:101CF80000000000000000000000000000000000DC
:101D080090200020291B02006DC4010095C6010027
:101D1800E9CD010095D101003D02020045C4010052
:041D280000000000B7
:040000031000F949A7
:00000001FF
